:020000040800F2
:10000000D04300204901000881380008013700086A
:100010007938000829100008E541000800000000B8
:10002000000000000000000000000000AD390008E2
:10003000612600080000000031390008553A000828
:100040006301000863010008630100086301000800
:1000500063010008630100086301000863010008F0
:1000600063010008630100086301000863010008E0
:1000700063010008630100086301000863010008D0
:100080006301000863010008390F000863010008DC
:1000900063010008091A00086301000863010008F1
:1000A000630100080D3B00086301000863010008BC
:1000B0006301000863010008630100086301000890
:1000C0006301000863010008630100086301000880
:1000D0006301000863010008FD3F00086301000898
:1000E0006301000863010008630100086301000860
:1000F0006301000863010008630100086301000850
:10010000630100086301000863010008630100083F
:10011000630100086301000863010008630100082F
:10012000630100086301000863010008630100081F
:10013000DFF810D000F028FC00480047B56C00083C
:10014000AFF30080D04300200648804706480047B0
:10015000FEE7FEE7FEE7FEE7FEE7FEE7FEE7FEE777
:10016000FEE7FEE7653A00083101000840EA0103B6
:100170009B0703D009E008C9121F08C0042AFAD25D
:1001800003E011F8013B00F8013B521EF9D2704721
:10019000D2B201E000F8012B491EFBD270470022C9
:1001A000F6E710B513460A4604461946FFF7F0FF76
:1001B000204610BD30B504460020034600E05B1C1D
:1001C000934203D2E05CCD5C401BF8D030BD70B5EB
:1001D000064604F01BF8046805460A220021304652
:1001E00000F026F92C6070BD70B5C1F30A5201F021
:1001F00000450024C1F3130140F2FF3341F48011A4
:100200009A4201DA002070BD40F233439A42A2F2D2
:10021000334203DC524200F0ACF800E090402C4343
:10022000F1D0404270BD00F0004230F000400AD0F2
:10023000C10D01F56071C0F3160042EA0151C20818
:1002400040071143704700200146704730B5041E37
:1002500071F1000404DB4FF00044404264EB010103
:10026000141E73F1000405DB1C464FF0004352429C
:1002700063EB04038B4208BF824230BD30B5041EDD
:1002800071F1000404DB4FF00044404264EB0101D3
:10029000141E73F1000405DB1C464FF0004352426C
:1002A00063EB0403994208BF904230BD01F0004364
:1002B00030B421F0004150EA010206D00A0DA2F547
:1002C0006072C1F31301002A02DC30BC00207047C9
:1002D000440F44EAC104C100E01830BC00EBC25036
:1002E00000F0DEB830B50B46014600202022012484
:1002F00009E021FA02F59D4205D303FA02F5491BF4
:1003000004FA02F52844151EA2F10102F1DC30BD09
:100310002DE9F05F0546002092469B46884606463A
:10032000814640241BE0284641464746224600F0CD
:1003300020F853465A46C01A914110D31146184628
:10034000224600F033FB2D1A67EB01084F46224688
:100350000120002100F02AFB17EB00094E41201E6E
:10036000A4F10104DFDC484631462A464346BDE895
:10037000F09F202A04DB203A21FA02F00021704786
:1003800021FA02F3D040C2F12002914008431946FD
:10039000704700000FB4002300B589B00CA900918C
:1003A0000B996FF00042CB601E4B06931E4B0793D8
:1003B0000423CDE901321D4A089202466B46002013
:1003C00000F0B8FB09B05DF814FB70B586B00646C6
:1003D0004FF0FF300091CDE90101002015460C4699
:1003E00004903246694604A8FFF7D4FF02460498F9
:1003F000211825B108B1084600E02046286004987D
:1004000000280DD0002A02DD0098884208D0081B81
:100410000094CDE901043246694604A8FFF7BAFF0B
:1004200006B070BD6D0D00088B0D0008F9090008BD
:100430002DE9F04791460F4680460446002614F801
:10044000015B2DB100F0D4FA0068405DC007F6D121
:100450002B2D02D02D2D18D0641E4A463946204639
:1004600000F0A4FC27B13968A14201D1C7F800808F
:1004700071054FF002040BD54042002803DD03F064
:10048000C5FE0460A007BDE8F08746F48066E4E797
:100490000028F8DA03F0BAFE04606FF00040F2E7DB
:1004A0000029A8BF7047401C490008BF20F0010088
:1004B000704710B4B0FA80FC00FA0CF050EA010466
:1004C00004BF10BC704749B1CCF1200421FA04F4F8
:1004D00011FA0CF118BF012121430843A3EB0C01D1
:1004E000CB1D4FEA00614FEA102042BF002010BC34
:1004F000704700EBC35010440029A4BF10BC7047E4
:10050000401C490008BF20F0010010BC7047F0B447
:1005100000F0004221F0004120F00040CE0DC30D5C
:10052000C1F3160141F40001C0F316004C42154618
:1005300040F40000761E09E010EB440002D582F082
:10054000004240428842F7D840005B1EB342F9DACD
:1005500018B1F0BC0021FFF7ACBF2846F0BC7047D3
:100560002DE9FE4F804681EA0300C00F0C46009043
:1005700021F0004123F00045B8EB0200A94105D26B
:100580004046214690461C460B46024623F000405A
:10059000104347D0270DC7F30A00C3F30A51029056
:1005A000401A019040286BDAC3F3130040F4801B1B
:1005B0000098924620B10023D2EB030A63EB0B0BA9
:1005C00001985946C0F14002504600F0EFF9064646
:1005D0000D4650465946019A00F0F7F910EB080015
:1005E0006141002487EA115284EAE7731A4340D03C
:1005F000009A62B3019A012A4FEA075215DC001BE8
:1006000061EB02014FF0004202EA0752CDE90042DD
:10061000001C41F5801132462B4600F025FC03B04A
:10062000BDE8F08F40462146F9E7001B61EB02016F
:10063000001C41F5801300185B412018A2F500173B
:1006400047EB030140EAD570B6196D4111E06D0822
:100650004FEA360645EAC0754FEA0752001B61EBC8
:100660000201001C41F5801149084FEA30000019D1
:10067000514132462B4603B0BDE8F04F00F0E5BBD8
:100680000098012240000023D0EB020263EBE073EC
:10069000009821464FEAE074B8EB000061EB0401DA
:1006A000E9E783F000435BE781F0004158E72DE97B
:1006B000FE4F81EA030404F0004421F0004100945D
:1006C0004FF0000B23F0004350EA01045ED052EAE1
:1006D00003045BD0C3F30A54C1F30A552C44A4F2BB
:1006E000F3340194A0FB0254C1F3130141F48011CF
:1006F000C3F3130343F4801301FB024400FB034ED6
:10070000840A970A44EA815447EA8357A4FB07689E
:1007100002958D0A05FB07854FEA932C04FB0C54C8
:100720002705029D4FEA065847EA1637B5EB08053C
:100730006EEB070C870E920E47EA811742EA83128E
:10074000A7FB0201B6EB0B0164EB00042B0D43EA9F
:100750000C335E1844EB1C50DA465146E7FB0201AD
:10076000C5F313044FEA0B3343EA14534FEA043240
:10077000019C43EA0603A4F10C040294009CCDE919
:1007800000B400F071FB03B0BDE8F08F002001461B
:10079000F9E72DE9F04D81EA030404F0004B21F064
:1007A000004514464FF0000A23F0004150EA0502CC
:1007B00020D054EA01021DD0C5F30A570246C5F302
:1007C0001303C1F31300C1F30A5640F4801543F438
:1007D0008013A7EB0608101BD64608F2FD3873EB12
:1007E000050002D308F1010801E092185B41B8F15D
:1007F000000F03DA00200146BDE8F08D00204FF421
:100800008011064684460EE0171B73EB050705D3DF
:10081000121B63EB050306434CEA010C49084FEA3F
:10082000300092185B4150EA0107EDD152EA030013
:1008300012D082EA040083EA0501084305D0101BA8
:10084000AB4106D20122002306E000224FF0004314
:1008500002E06FF0010253101AEB06004CEB085156
:1008600010EB0A0041EB0B01BDE8F04D00F0EDBAD2
:100870002DE9F041054621F000400C46284309D0FF
:10088000C4F30A5040F23341884205DD2846214630
:10089000BDE8F0812846FBE740F2FE31884210DCDB
:1008A0000CDB4FEA043040EA155050EA053105D020
:1008B000104804F0004101430020E9E70020014610
:1008C000E6E7A0F233404642C6F140022846214600
:1008D00000F06CF807468846284621463246FFF766
:1008E00048FD43463A4600F0B0FA3246BDE8F041D2
:1008F00000F05CB80000F03FC1F30A52C1F31301ED
:1009000040F2FF3341F480119A4202DA002001469E
:10091000704740F233439A42A2F2334202DC524221
:10092000FFF727BD00F042B870B5044601F000455E
:100930000020054304D14FF00045644265EB0101FE
:1009400003F00045284305D118464FF000435242BA
:1009500063EB0003101B73EB010002D24FF0004069
:1009600009E082EA040283EA01034FF000501A43CF
:1009700001D14FF0C0404FEA2062EFF3008162F3F3
:100980001F6181F3008870BD064C074D06E0E068EA
:1009900040F0010394E8070098471034AC42F6D3C6
:1009A000FFF7CAFB1494000834940008202A04DBE3
:1009B000203A00FA02F1002070479140C2F1200372
:1009C00020FA03F3194390407047202A06DBCB1727
:1009D000203A41FA02F043EAE07306E041FA02F3FA
:1009E000D040C2F1200291400843194670470000F0
:1009F00000487047B493000810B50446FFF7F8FFAD
:100A00000068005D00F0010010BD00002DE9FF4FFF
:100A1000087883B09946FF2805D0491C2D2804D0BA
:100A20000024002008E000200BE00124F9E700EB9F
:100A3000800003EB4000491C0B78FF2BF7D104B179
:100A4000404200230293147819461D462D2C01D0F4
:100A50002B2C04D1521C2D2C13D000240294AA4616
:100A60001478FF2C0FD00A25A3FB057801FB058124
:100A70004FF0000C03FB0C11521CE3194AEB01016F
:100A8000EEE70124EAE7814453EA010002D019F5B8
:100A9000C87F06DA03980021C0E9001107B0BDE85D
:100AA000F08F0025AE4E2F46DFF8B882184600F0D2
:100AB00037FACDE90001B9F1000002DAC9F100040A
:100AC00000E004460023A74A1AEB030B42EB045A4A
:100AD00012E0E00707D02A46334638464146FFF782
:100AE000E6FD074688462A46334610461946FFF774
:100AF000DEFD05460E466410002CEAD1DDE900015A
:100B0000B9F1000F5A46534606DAFFF742FE3A465D
:100B10004346FFF73EFE05E0FFF7C9FD3A46434670
:100B2000FFF7C5FD029A0AB181F00041039AC2E9BC
:100B30000001B3E72DE9FF4F1F468DB0D7E901460D
:100B40004FF0FF382E2045464FF000090B90B96951
:100B50006D1C0E988847396A824688470028F6D16E
:100B6000BAF1FF3F0AD024F4D064002E11DDBAF1AF
:100B70002B0F08D0BAF12D0F0BD102E0404611B077
:100B80008DE744F48064B9696D1C0E9888478246ED
:100B9000761E6946600501D52D2000E02B208DF8DA
:100BA000000001F1010B0DF1200809E0B9696D1C8D
:100BB0000E98884782460F9844F40074761E0560AC
:100BC000002E02DDBAF1300FF0D00B998A453ED1EC
:100BD00044F0800406E00F99681CA9F1010944F46F
:100BE00000740860B9696D1C761E0E9888478246AD
:100BF0003028F0D02BE00B998A4505D1200603D48C
:100C000044F08004761E18E0504603F031FD08B32E
:100C10000DF11301761E44F400748B4508D2AAF13D
:100C200030000BF8010B200607D5A9F1010003E005
:100C3000200602D409F101008146A00502D50F99D2
:100C4000681C0860B9696D1C0E9888478246002EA2
:100C5000D1DC53E0002E51DDBAF1650F02D0BAF1BC
:100C6000450F4BD1A00549D5B9696D1C24F44074DA
:100C7000761E0E9888478246002E0CDD2B2804D065
:100C8000BAF12D0F07D144F48074B9696D1C0E9828
:100C900088478246761EE00501D52D2100E02B21F4
:100CA00008F8011BCDF82C8021E00DF12901761EFA
:100CB00044F4007488450CD2AAF1300010F0FF0013
:100CC00088F8000002D10B99884509D908F101087C
:100CD00006E0E00501D5244801E042F20F708146AC
:100CE000B9696D1C0E98884782460F980560002EE2
:100CF00004DD504603F0BCFC0028D6D1F9690E98FB
:100D00008847FF208BF8000088F80000002006903C
:100D100007904B466A4608A906A8FFF777FEA0058C
:100D200002D46FF001002AE714F0240F0AD0E00784
:100D300014D1DDE906123868031D3B600068C0E984
:100D400000120BE0DDE90601FFF7B0FA0146E0070B
:100D500004D13868021D3A600068016028460EE739
:100D6000000014400000F03FF1D8FFFF426842B19C
:100D7000016811F8013B23B1521EC0E90012184668
:100D800070470121C160881E704742685AB1C3682C
:100D9000016843B983688B4205D0491E521CC0E9E3
:100DA0000012002070474FF0FF3070472DE9F05FD0
:100DB00082460078002715468B460AF10104B946A1
:100DC000302801D09DB113E014F8010B01277828D9
:100DD00003D0582801D045B10AE00DB1102D07D13C
:100DE0000027102514F8010B02E0082500E00A2571
:100DF0000026B0460EE005FB080005FB06F10127C2
:100E000001EB10461FFA80F8B6F5803F00D3B946D3
:100E100014F8010B294600F075F80028EBDABBF155
:100E2000000F05D00FB1641E00E05446CBF800401F
:100E3000B9F1000F06D003F0E9F902210160C81EE4
:100E4000BDE8F09F48EA0640FAE710B5141E73F1BA
:100E5000000408DA401C41F1000192185B411A437A
:100E600001D120F0010010BD2DE9F04D92469B46C6
:100E700011B1B1FA81F202E0B0FA80F2203290466C
:100E8000FFF794FD04460F4640EA0A0041EA0B01D1
:100E900053465A46084313D0114653EA010019D06D
:100EA000C8F140025046FFF764FA05460E46504628
:100EB00059464246FFF77AFD084305D0012004E079
:100EC00020463946BDE8F08D0020054346EAE0762D
:100ED0002C4337430A986305E40AA0EB080000227C
:100EE000FD0A44EA47540A3002D500200146E9E7EA
:100EF000010510196941DDE9084500196941BDE89E
:100F0000F04DA2E73A2800D2303820F02002412AE2
:100F100001D3A2F13700884201D34FF0FF30704770
:100F20000EB540F2334202920022CDE90022134670
:100F3000FFF79AFF03B000BD10B50221314804F05D
:100F400040F818B102212F4804F038F82D48006805
:100F500020F004002B4908609FED2B0A01F084FB70
:100F60002A4800882A4988800021264803F0F9FF92
:100F7000274908800021274803F0F3FF24494880CF
:100F80000846C06A0988401A00EE100AB8EEC00A86
:100F9000DFED210A20EE200A1D4880ED030A006BD8
:100FA0001B494988401A00EE100AB8EEC00ADFED6E
:100FB0001A0A20EE200A164880ED040A90ED030A72
:100FC000B1EE400AD0ED040A30EE600A80ED050A69
:100FD00090ED020ADFED110A20EE200A808800EE73
:100FE000900AF8EE600A9FED0E1A60EE810A9FEDFE
:100FF0000D1A00EE810A064880ED020A01F0D0FECB
:1010000010BD00000024014017B75138EC0000204B
:10101000E801002000280140500AA53C48E17A3F41
:101020000AD7A33C6836573C01F054FC00BFFEE7EA
:101030000020014908707047A40000202DE9F0410C
:101040002DED0A8B82B00446FE4890ED000AB8EE02
:10105000400ADFEDFD0A20EE200AB0EE408AFB4890
:10106000007811287ED2DFE800F0090A186391C2E7
:10107000FCFBFAF9F8F7F6F5F4F3F20031E20020A0
:10108000F04908609FEDF20AF24880ED000A01F095
:1010900026FC0220ED49087023E2EF4890ED470A54
:1010A000D4ED030A70EE600AEA4890ED000A9FED65
:1010B000EB1A01EE200A80ED000A90ED000AE648E6
:1010C000D0ED480AB4EEE00AF1EE10FA0CDCE1488B
:1010D00090ED000AE048D0ED480AF1EE600AB4EE67
:1010E000E00AF1EE10FA08D201F036FD0120DC49E9
:1010F00008701020D5490870F3E1D64890ED001A29
:10110000F0EE410A94ED021AB0EE410ADFEDD01A7A
:101110009FEDCF1A04F022F8CA4800684EF660210D
:10112000884204D301F018FD0320C8490870D8E1B3
:10113000C84890ED000AC848D0ED470A80EE201A52
:101140009FEDC80A21EE000A80ED010A90ED010A28
:1011500010EE101A0846FFF766F841EC190B53EC35
:10116000192B00E0A9E3C0A003F040F8BA48D0ED85
:10117000010AB0EE600A01A805F008FB01A90120F0
:1011800000F046FC0420B1490870AAE19FEDB00AC6
:10119000BB4880ED000A9FEDAE0A80ED010AAE4823
:1011A00090ED480AB1EE400AAA4880ED000AAA482C
:1011B00090ED480AA74880ED010A0020A149086087
:1011C000B049086001F08BFBA24890ED001AF0EEE8
:1011D000410A94ED021AB0EE410ADFED9D1A9FED2F
:1011E0009C1A03F0BBFF052098490870E0E395487E
:1011F0000068022840D3002092490860A148007886
:1012000000F001059E4800EB850090ED000AD4ED4A
:10121000030A30EE200A9A4800EB850080ED000AB0
:101220008C4800EB850090ED001AF0EE410A94ED39
:10123000021AB0EE410ADFED861A9FED851A03F01F
:101240008DFF90480068401C8E4908600AE099E3D1
:10125000B9E22EE2B4E188E171E1D5E0ADE080E0F1
:1012600064E00AE042F21071884204DB01F074FC91
:1012700006207649087000BF9AE3814890ED000A85
:10128000D0ED010A30EE600AF5EE000A80EE201A79
:10129000B0EE419A704890ED480AC0EE090AF0EEAF
:1012A000609A9FED700A29EE800A80ED020A90EDA7
:1012B000020A10EE101A0846FEF7B5FF41EC1C0BAF
:1012C00053EC1C2B70A002F091FF6348D0ED020A92
:1012D000B0EE600A01A805F059FA01A9022000F059
:1012E00097FB5D4890ED560AB8EEC00AB0EE40AAF2
:1012F0009FED6B0A2AEE000AF7EE000A80EE801AD4
:10130000F0EE418A90ED020A20EE280AF0EE40AAA3
:1013100090ED010A20EE280AB0EE40BAC0ED54AAC2
:1013200080ED55BA07204949087041E3002045493E
:101330000860494890ED470AD0ED010A20EE200AE6
:10134000F0EE080A20EE200AF0EE000A80EE201AE5
:10135000404880ED001A01F0C2FA08203B490870AD
:1013600026E33C4890ED000A20EE080AF0EE000A61
:1013700080EE201AF0EE418AD4ED020AB0EE600A47
:10138000DFED331A9FED321AF0EE680A03F0E6FE45
:10139000B0EE000AB4EEC08AF1EE10FA0CDB414860
:1013A00090ED040A404880ED000A002025490860BD
:1013B000092026490870FBE2FAE29FED3C1A28EE6C
:1013C000011AF0EE411A234890ED001AF0EE410A9E
:1013D00094ED021AB0EE410A9FED1D1A03F0BEFE15
:1013E000B0EE000AB4EEC08AF1EE10FA0BDB2D4825
:1013F00090ED040A2E4880ED000A01F0ADFB0A20B2
:1014000012490870D4E2D3E22948D0ED000A2648F8
:1014100090ED001A30EEC10AF0EEC00AB0EE000AFC
:1014200080EE201A11EE105A2846FEF7FCFE41EC21
:101430001A0BB0EE4A0AF0EE6A0A02F0A5FFB0EE0F
:10144000409A37E0A800002017B75138A4000020C8
:1014500000000000AC0000201C02002017B7D138AB
:10146000A5000020ABAA2A3F70686173655F7265B2
:1014700073697374616E6365203D2025660A0D00F3
:10148000B4000020C000002070686173655F696E61
:1014900064756374616E6365203D2025660A0D00E6
:1014A000BD37863524010020CC000020DB0FC94069
:1014B000D0000020F0EE609A51EC190BFEF794FE7C
:1014C000FE49086008460168FDA002F08FFEFB4857
:1014D00000681E2806DD0220FE4908701020FE4923
:1014E000087065E2FD4890ED000AFD48D0ED000A65
:1014F000B4EEE00AF1EE10FA03DD0020EF490861D6
:1015000002E00120ED490861EC480169F5A002F014
:101510006DFEEA49086801A905F086FB01A90320D0
:1015200000F076FAE549086901A905F07DFB01A9FB
:10153000042000F06DFA0B20E749087038E2002023
:10154000EE4908601FED3E0AED4880ED000A1FEDF0
:10155000400AEC4880ED000A0020EB49086001F0E9
:10156000BEF90C20DC49087022E2E84890ED000A40
:1015700020EE080AF0EE000A80EE201AF0EE418A12
:10158000D4ED020AB0EE600ADE48D0ED001A1FED7D
:10159000501AF0EE680A03F0E1FDB0EE000AB4EE76
:1015A000C08AF1EE10FA0ADB0020D7490860D8485B
:1015B0000088D84908600D20C7490870F8E1F7E1B4
:1015C000D04890ED000ADFEDD40A30EE200A80ED1D
:1015D000000ACE4890ED001AF0EE410A94ED021A8E
:1015E000B0EE410AC748D0ED001A1FED671A03F0AC
:1015F000B5FDC34890ED000AB4EEC08AF1EE10FAD2
:1016000038DDC04A92ED000ADFEDC40A60EE200A20
:10161000AA4A92ED000AB8EEC00A1FED5C1A20EE4D
:10162000010A80EE801ABDEEC10A10EE101AB84A07
:101630001288501AC20F43F6FF7313FB0203B84A15
:10164000AE4D2D6842F82530AD4A92ED000ADFED2F
:10165000B50A30EE200A82ED000A984A1268A74BBC
:101660001B68B3EBC21F04DAA44A1268521CA34BD6
:101670001A6000BF914890ED000AB8EEC00A5FED15
:10168000750A60EE200A1FED771A80EE810AB4EE2B
:10169000C80AF1EE10FA0BD81FED930A984880EDB6
:1016A000000A0020984908600E208B4908707FE1ED
:1016B0007EE1944890ED000ADFED970A30EE600A73
:1016C00080ED000A914890ED001AF0EE410A94ED89
:1016D000021AB0EE410A8B48D0ED001A1FEDA41A91
:1016E00003F03CFD864890ED000AB4EEC08AF1EEAE
:1016F00010FA42DD8148006800283EDD814A92ED03
:10170000000ADFED860A60EE200A6C4A92ED000ABC
:10171000B8EEC00A1FED9B1A20EE010A80EE801A77
:10172000BDEEC10A10EE101A794A1288501AC20F83
:1017300043F6FF7313FB0200794B704D2D6853F88D
:1017400025301A1802EBD2735B10754D6B4E36685C
:1017500045F82630694A1268002A04DD674A126893
:10176000521E664B1A60664A92ED000ADFED6D0A62
:1017700030EE200A82ED000A00BF504890ED000ACA
:10178000B8EEC00A5FEDB70A60EE200A1FEDB91A85
:1017900080EE810AB4EEC80AF1EE10FA12D85C4865
:1017A00000885C49096808445A490860086800EBE9
:1017B000D0714910574A116001F0CEF90F20464907
:1017C0000870F5E0F4E00027002004E0544951F8E7
:1017D00020100F44401C39490968B0EBC11FF5DBEC
:1017E00036480068C00197FBF0F03449486108466C
:1017F00041694DA002F0FAFC3049486901A905F0A1
:1018000013FA01A9052000F003F98025414800687A
:10181000C00143F6FF7190FBF1F03E4908600021E2
:1018200091E00023684200EBD07C4FEA6C0630E088
:10183000DFF88880D8F8008008FB01F84FEAC81C60
:101840004FEAEC780CEB586806EBE810002808DA51
:10185000DFF868C0DCF800C04FF0800808FB0C001F
:1018600011E0DFF858C0DCF800C04FEACC1CACF146
:10187000010C844507DADFF844C0DCF800C04FF003
:10188000800808FB1C00DFF898C05CF820C06344A7
:10189000761C05EBD57CB6EB6C0FC9DB93FBF5F33F
:1018A0001C48006842187F2A00DD803A0348808A7D
:1018B000181A06B20148183042E078E01C020020F5
:1018C000506F6C65207061697273203D2025640A39
:1018D0000D000000A5000020A4000020D000002082
:1018E000CC000020456E636F6465722064697220CD
:1018F000726576203D2025640A0D0000C00000209E
:10190000C4000020C8000020A8000020AC00002077
:1019100024010020BC000020BEB5A43900FC7F4695
:10192000BC0300200000003C456E636F64657220BC
:101930004F6666736574203D2025640A0D00000023
:1019400020F81260491C8029FFF66BAF00260EE0DC
:101950001D4931F9160001A905F066F901A906F142
:101960000A0000F055F80A2002F024F8761C802EB8
:10197000EEDB012014491839C1F818011B2001F0D1
:1019800033F915E01148017811A002F02FFC01A9EC
:101990000E48007805F048F901A94FF0FF3000F03B
:1019A00037F8FFF745FB00200E49087000E000BF44
:1019B00000BF0D480068401C0B49086002B0BDEC38
:1019C0000A8BBDE8F081000034020020A500002051
:1019D00043616C6962204572726F722025640A0D42
:1019E00000000000A4000020A800002000200449FE
:1019F000C1F8180108610120024908707047000011
:101A00001C020020A400002010B501F0DBFB10BD7B
:101A10007CB505460C460E4890F8680100F00F00B2
:101A200040F060066946284605F00CF920788DF8EC
:101A3000040060788DF80500A0788DF80600E07845
:101A40008DF8070008226946304601F071FC7CBD24
:101A50001C02002038B50446084890F8680100F0E0
:101A60000F0040F020056946204605F0EBF80422FF
:101A70006946284601F05CFC38BD00001C020020CD
:101A800010B501F0E1FF0149086010BDD40000204D
:101A90002DE9F041044625682E0905F00F07954809
:101AA000D0F86801B84202D00FB1BDE8F08191488A
:101AB000D0F86C0118B101F0C7FF8F490860162EED
:101AC00070D2DFE806F00B186F2E3B4E6F5B68702C
:101AD0007D8A97A5B3C1CFDDE3E9F8F61B2001F0BD
:101AE00083F88046611D05F0ADF80422611D28468B
:101AF00001F01EFCFBE06D2001F076F88046611DD0
:101B000005F0A0F87D48D0ED040AB0EE600A04F1BB
:101B1000090004F04BFE0822611D284601F008FC74
:101B2000E5E07A2001F060F88046611D05F08AF852
:101B30000422611D284601F0FBFBD8E001F04EF8BD
:101B40008046611D05F07EF801F042F8804604F100
:101B5000090105F077F80822611D284601F0E8FB2D
:101B6000C5E0632001F040F88046611D05F06AF889
:101B70000422611D284601F0DBFBB8E01B2001F0C8
:101B800033F88046611D05F05DF80422611D28468A
:101B900001F0CEFBABE05748D0F8700108B106F079
:101BA0006FFDA4E0A2E0601D04F036F9544880ED1A
:101BB000000A5048D0F8700108B906F061FD96E0BF
:101BC000601D04F029F94F4880ED000A4948D0F81B
:101BD000700108B906F054FD89E0601D04F01CF99D
:101BE000494880ED000A4348D0F8700108B906F072
:101BF00047FD7CE04148D0ED040AB0EE600A601D6C
:101C000004F0D4FD0422611D284601F091FB6EE032
:101C10003A48D0ED070AB0EE600A601D04F0C6FD38
:101C20000422611D284601F083FB60E03748D0EDB7
:101C3000070AB0EE600A601D04F0B8FD0422611DC1
:101C4000284601F075FB52E03048D0ED020AB0EEB4
:101C5000600A601D04F0AAFD0422611D284601F0FF
:101C600067FB44E02948D0ED080AB0EE600A601D29
:101C700004F09CFD0422611D284601F059FB36E06A
:101C80000122611D284603F029FE30E00022611D7B
:101C9000284603F023FE2AE0752000F0A5FF8046C9
:101CA000611D04F0CFFF0422611D284601F040FBB6
:101CB0001DE00CE0FFE702F01DFA611D002004F0BA
:101CC000C1FF0422611D284601F032FB00BF611DE7
:101CD000002004F0B7FF04F10901032004F0B2FF73
:101CE0000822611D284601F023FB00E000BF00BF71
:101CF00000BFDAE61C020020D400002024010020EE
:101D0000E0000020DC000020D8000020E8010020D6
:101D100010B52DED0C8B0446B0EE40AAF0EE60AA93
:101D2000FE48D0F8240106287DD2DFE800F0033C0D
:101D3000C2FEF1F094ED020AF848D0ED530AF1EE3C
:101D4000600AB4EEE00AF1EE10FA02DD94ED020A48
:101D500004E0F24890ED530AB1EE400AEF48D0EDAE
:101D6000530AB4EEE00AF1EE10FA02DD90ED530AE8
:101D700013E094ED020AE948D0ED530AF1EE600A4F
:101D8000B4EEE00AF1EE10FA02DD94ED020A04E08E
:101D9000E24890ED530AB1EE400AE14880ED000AB6
:101DA00090ED009AE4E194ED020ADC48D0ED530A8C
:101DB000F1EE600AB4EEE00AF1EE10FA02DD94ED05
:101DC000020A04E0D54890ED530AB1EE400AD34828
:101DD000D0ED530AB4EEE00AF1EE10FA02DD90ED18
:101DE000530A13E094ED020ACC48D0ED530AF1EE09
:101DF000600AB4EEE00AF1EE10FA02DD94ED020A98
:101E000004E0C64890ED530AB1EE400AB0EE40DA65
:101E1000C24890ED4A0ADFEDC30A20EE200A10EE18
:101E2000101A084600E0A2E1FEF7FDF941EC1C0B98
:101E3000B0EE4C0AF0EE6C0A02F00AFAB0EE40BACC
:101E4000F0EE60BA51EC1B0BFEF730FA08EE100A08
:101E5000B34890ED000A7DEE409AB1EE480AF4EEE8
:101E6000C09AF1EE10FA02DDB0EE690A01E0B1EEBF
:101E7000480AB4EEC80AF1EE10FA02DDB0EE480AE4
:101E80000BE0B1EE480AF4EEC09AF1EE10FA02DD72
:101E9000B0EE690A01E0B1EE480AF0EE40DAA0487F
:101EA00090ED000A30EE2D0A80ED000A90ED009AC8
:101EB0005EE194ED010A9948D0ED520AF1EE600A14
:101EC000B4EEE00AF1EE10FA02DD94ED010A04E04E
:101ED000924890ED520AB1EE400A9048D0ED520A75
:101EE000B4EEE00AF1EE10FA02DD90ED520A16E0CF
:101EF00094ED010A8948D0ED520AF1EE600AB4EE81
:101F0000E00AF1EE10FA05DD94ED010A07E0A3E026
:101F10009CE00AE0814890ED520AB1EE400A824806
:101F200080ED000AD0ED008A22E194ED010A7B48A1
:101F3000D0ED520AF1EE600AB4EEE00AF1EE10FACA
:101F400002DD94ED010A04E0744890ED520AB1EE0E
:101F5000400A7248D0ED520AB4EEE00AF1EE10FAEF
:101F600002DD90ED520A13E094ED010A6B48D0EDCA
:101F7000520AF1EE600AB4EEE00AF1EE10FA02DD68
:101F800094ED010A04E0654890ED520AB1EE400A72
:101F9000F0EE40DA614890ED4B0ADFED620A20EE88
:101FA000200A10EE101A0846FEF73DF941EC1C0B12
:101FB000B0EE4C0AF0EE6C0A02F04AF9B0EE40BA0C
:101FC000F0EE60BA51EC1B0BFEF770F908EE100A48
:101FD000554890ED000A7DEEC09AB1EE480AF4EE45
:101FE000C09AF1EE10FA02DDB0EE690A01E0B1EE3E
:101FF000480AB4EEC80AF1EE10FA02DDB0EE480A63
:102000000BE0B1EE480AF4EEC09AF1EE10FA02DDF0
:10201000B0EE690A01E0B1EE480AB0EE40DA42489B
:1020200090ED000A30EE0D0A80ED000A9FED3D0AAA
:10203000CDEE000A394890ED030A20EE800A3848B8
:1020400080ED000A3848D0ED008A91E094ED000A56
:10205000364880ED000A8BE03548007840B1D4ED79
:10206000000AB0EE600A04F09DFE002030490870BE
:102070003048007D00B17BE02E4890ED040AD0EDA1
:10208000030AB4EEE00AF1EE10FA12DD94ED000A54
:10209000264880ED000A9FED280A234880ED000ABB
:1020A0009FED250A1E4880ED000A01202149087590
:1020B0005CE02048D0ED040AB0EE600A01F048FD73
:1020C0001C4890ED000A194880ED000A194890ED6F
:1020D000010A154880ED000A164890ED020A0F48E3
:1020E000D0ED030A20EE200A0D4880ED000A1348C7
:1020F00090ED040A0D48D0ED000A30EEC00A10EE53
:10210000101A0846FEF78FF841EC1C0BB0EE4C0A93
:10211000F0EE6C0A02F09CF812E000001C020020B5
:102120007000002017B751386C00002068000020B4
:1021300078000020A40300200000000024010020FB
:10214000B0EE40BAF0EE60BA9FED530B53EC102B9B
:1021500051EC1B0BFEF77AF808D2514890ED040AB7
:102160005FED100A30EE200A80ED040A00E000BFA7
:1021700000BF4C48D0F82401042842DB4A48D0ED87
:10218000000A70EEEA0AB0EE600A464890ED4F1A77
:102190004648D0ED000A41EE000AF0EE608A414860
:1021A00090ED521AD0ED520AF1EE600AF4EEE80A10
:1021B000F1EE10FA02D2F0EE680A04E03948D0EDF0
:1021C000520AF1EE600AB4EEE01AF1EE10FA03D210
:1021D0003448D0ED520A11E03248D0ED520AF1EE07
:1021E000600AF4EEE80AF1EE10FA02D2F0EE680AA4
:1021F00004E02C48D0ED520AF1EE600AF0EE608A5D
:1022000000BF2848D0F8240102283FDB78EECA0A34
:10221000B0EE600A234890ED501A2548D0ED000A30
:1022200041EE000A234890ED001A70EE810AB0EEEC
:10223000609A1C48D0ED530AF1EE600AF4EEC90A28
:10224000F1EE10FA06DDD0ED530AF1EE600AB0EEC1
:10225000609A1AE01348D0ED530AF4EEC90AF1EE81
:1022600010FA04D2D0ED530AB0EE609A0DE00D489A
:10227000D0ED510A1FED551A20EE811A0D48D0ED10
:10228000000A41EE000AC0ED000A00BFB0EE490AA4
:10229000BDEC0C8B10BD0000000000000000F03F02
:1022A000A40300201C020020680000206C00002015
:1022B0007000002074000020034880ED000A012017
:1022C0000249087070470000980300207800002041
:1022D0009FED130A134981ED000A134991ED040A99
:1022E00080ED000A9FED0E0A80ED010A9FED0C0AB9
:1022F00080ED020A91ED040A0C4981ED000A9FED80
:10230000080A0B4981ED000A9FED050A094981ED94
:10231000000A0021084A11700121084A117570470E
:10232000000000007400002024010020680000204C
:102330006C0000207000002078000020A403002022
:1023400010B51C2421464FF4405000F071F910BD27
:1023500010B54FF4805000F035F840F004042146E9
:102360004FF4805000F064F910BD10B54FF4805068
:1023700000F028F820F0040421464FF4805000F0CB
:1023800057F910BD70B500F011F804460A2001F0AD
:102390001DFB00F010F805460A2001F017FBC4F3FE
:1023A0000A04C5F30A0505EAC42070BD10B5002073
:1023B00000F008F810BD10B54FF4006000F002F80E
:1023C00010BD000070B5044644F400454BF6EF66BE
:1023D0004FF48051074804F075FB2946012001F0B5
:1023E000ABFA06464FF48051024804F06DFBC6F389
:1023F0000A0070BD000C014000B585B0002000F05F
:102400007BF8142001F0E2FA012000F075F8FFF7E4
:1024100097FF642001F0DAFA01200021CDE90110D4
:10242000CDE9031003460A460846009100F09CF8E7
:10243000642001F0CBFA0D220A21032000F0B8F845
:10244000642001F0C3FA0D230A220121084600F09E
:10245000C0F8642001F0BAFA0020019002900390C5
:102460000490032302460121009000F059F86420F3
:1024700001F0ACFA052001231A460021009018460D
:1024800000F0BCF8642001F0A1FA4FF48050FFF78F
:1024900099FF242803D04FF0FF3005B000BD4FF462
:1024A000C050FFF78FFF40F2AD31884202D04FF0AD
:1024B000FF30F2E74FF40050FFF784FF40F2AD51D8
:1024C000884202D04FF0FF30E7E74FF44050FFF76B
:1024D00079FFB0F5307F02D04FF0FF30DDE74FF4E9
:1024E0002050FFF76FFF40F25541884202D04FF075
:1024F000FF30D2E70020D0E710B504462CB14FF4EE
:102500000061064804F0E0FA04E04FF4006103487B
:1025100004F0D8FA022001F04DFA10BD0008014085
:102520002DE9F84F04460D4616461F46DDE90CAB73
:10253000DDE90A89A00240EA452040EA062040EA97
:10254000871040EA481040EA091040EACA0040EA11
:102550008B000E99084380B200904FF440500099D0
:1025600000F066F8BDE8F88F2DE9F84F04460D46F7
:1025700016461F46DDE90CABDDE90A89600240EA38
:10258000052040EAC61040EA471040EA081040EA39
:10259000C90040EA8A0040EA4B000E99084380B225
:1025A00000904FF48050009900F042F8BDE8F88F99
:1025B0002DE9F04104460D461646200240EA05107A
:1025C000304387B239464FF4C05000F031F8BDE8CF
:1025D000F0812DE9F04104460D4616461F46A00243
:1025E00040EA052040EA061038431FFA80F84146C9
:1025F0004FF4005000F01CF8BDE8F0812DE9F047E1
:1026000004460D4616461F46DDF82090A00240EA1B
:10261000052040EA861040EA071040EA09001FFA48
:1026200080F841464FF4205000F002F8BDE8F087F2
:1026300070B504460D46C5F30A0040EA04064FF49F
:102640008051064804F03EFA3146012001F074F949
:102650004FF48051014804F037FA70BD000C01407E
:1026600010B500F037F910BD2DE9F0412DED048BC8
:10267000B0EE409A8748D0F81801002841D085482C
:10268000006938B100F010F943F6FF71081A824969
:10269000088003E000F008F97F4908807E48008840
:1026A000C1117C48183030F911507B49098801224A
:1026B00002EBE110C11700EB5161C911A0EBC1128F
:1026C0007449183131F912707348008872490988C9
:1026D000C911A0EBC110791B484305EBE0166E4809
:1026E0000088841BB4F5804F03DBA4F57C54FF3CC9
:1026F00004E0002C02DA43F6FF70044466484460AC
:1027000012E06448006938B100F0CEF843F6FF717A
:10271000081A6149088003E000F0C6F85E490880A5
:102720005D4800885C4948605B4840685A49896850
:10273000401AB0F5005F05DB5748C068401E564997
:10274000C8600CE05448406853498968401A10F545
:10275000005F04DC5048C068401C4F49C8604E48C8
:1027600040684D498860084690ED010AB8EEC00AFD
:102770009FED4A1AC0EE010A90ED030AB8EEC00AB6
:1027800030EE800A80ED040A406842494969401AE7
:1027900000EE100AF8EEC00A3E4890ED000AB8EECE
:1027A000C00A20EE800ADFED3D0A80EE201A3A488A
:1027B00080ED061AD0ED060A90ED060ABDEEC00ABD
:1027C000B8EEC00A30EEC00ADFED350A20EE200A6E
:1027D00080ED060A90ED060AB5EEC00AF1EE10FA99
:1027E00006D290ED060ADFED2E0A30EE200A02E056
:1027F000294890ED060A284880ED060A90ED040A63
:10280000D0ED050A30EE600AC0EE098A90ED040AA8
:1028100080ED050AB0EE688A01201CE0C0F12701B6
:102820001D4A243202EB810191ED000AC0F1280219
:102830001949243101EB820181ED000AC0F128021F
:102840001549243101EB820191ED000A30EE080AAE
:10285000B0EE408A401C2828E0DB0F48C0ED098A12
:102860009FED100AC8EE000AC0ED070A90ED070AB6
:10287000DFED0B0A60EE200A064890ED000AB8EE84
:10288000C00A20EE800A044880ED080ABDEC048BE3
:10289000BDE8F0811C0200202401002000FC7F46DE
:1028A000DB0FC9400000204210B54FF4004108483A
:1028B00004F008F94FF6FF71022001F03DF8C0F373
:1028C0000D044FF40041024804F0FEF8204610BD0C
:1028D0000008014072B600F0EBFF00BFFEE710B544
:1028E00003F07AFA044601F003F8204603F07AFA7E
:1028F00010BD000010B52DED108B8CB00446B0EE6D
:1029000040BAF0EE60BAF0EE41AAB0EE61CA94EDC2
:10291000030AD4ED040A94ED051A8DED0B0A70EE4E
:10292000C11A9FED832A61EE821ACDED0A1A00BF0B
:10293000DDED0B9A9DED0AAA01A902A8B0EE6A0A84
:1029400003F0F4FD9DED010A29EE800ADDED020A97
:102950000AEE200A8DED090AB1EE690ADDED020AE0
:1029600020EE200ADDED010A0AEE200A8DED080AAC
:1029700000BF94ED060ADFED6F0A20EE200ADDEDC0
:10298000090A9FED6D1A01EE200A84ED060A94ED06
:10299000070ADFED680A20EE200ADDED080A9FED48
:1029A000661A01EE200A84ED070A9DED090A3BEE46
:1029B000400AF0EE40CA9DED080A3BEEC00AB0EEB8
:1029C00040DA94ED090A5D48D0ED540A00EEAC0AF5
:1029D000B0EE40EA94ED0A0AD0ED540A00EE8D0AFA
:1029E000F0EE40EA94ED020ADFED550A20EE200AEF
:1029F000B0EE40FAB7EE000AC0EE0F0AF0EE60DA71
:102A00002DEE8E0AF0EE408A2DEEAE0AB0EE408A30
:102A100068EEA80A48EE080AB0EE600A01F024FD4C
:102A2000DFED480A80EE801AB0EE419AB7EE000A58
:102A3000B4EEC09AF1EE10FA18D228EE890AF0EE40
:102A4000408A28EE090AB0EE408A94ED090ADFEDCB
:102A50003E0A20EE200A84ED090A94ED0A0ADFED11
:102A60003A0A20EE200A84ED0A0A18E094ED090AD9
:102A70003248D0ED550A9FED351A60EE810A0CEE12
:102A8000A00A84ED090A94ED0A0AD0ED550A9FEDDB
:102A90002F1A60EE810A0DEE200A84ED0A0A94EDE9
:102AA000060A20EE280AD4ED070A08EE200A84ED73
:102AB000080A06A907A8B0EE4C1AF0EE480AB0EED4
:102AC000680A04F0CDF803AA04A905A8DDED060AFA
:102AD0009DED070A05F056FC9DED050ADFED1C0A89
:102AE00020EE200ABCEEC00A10EE100A80B219498E
:102AF00008609DED040ADFED160A20EE200ABCEE08
:102B0000C00A10EE100A80B2091F08609DED030A8A
:102B1000DFED0F0A20EE200ABCEEC00A10EE100A0C
:102B200080B2091F08600CB0BDEC108B10BD000016
:102B30003ACD133F3333733FCDCC4C3D1C020020C4
:102B4000ABAA2A3FAC5C313FA4707D3F17B7513828
:102B500000803B453C2C014010B503F03DF9044694
:102B600000F0A6FE204603F03DF910BD9FED080AD7
:102B700080ED060A9FED060A80ED070A9FED040A24
:102B800080ED090A9FED020A80ED0A0A70470000F5
:102B9000000000002DE9F0410446002600274FF414
:102BA0007A754FF0000808E0642000F00FFF2088DD
:102BB00006446088074408F10108A845F4DB96FB49
:102BC000F5F0E06297FBF5F02063BDE8F0810000CE
:102BD0000148006870470000580000200148007854
:102BE000704700001400002070B5044600251B2C1F
:102BF00006D101205149487000208870284670BDD8
:102C00004E480078052875D2DFE800F00306495ADF
:102C10005D004FF0FF3588E0732C35D004DC632C69
:102C200017D06D2C36D104E0752C1ED07A2C31D102
:102C300027E04348006848B94248D0F8180128B155
:102C400002203E4948700020887001E04FF0FF35B7
:102C500023E03B48006828B9032038494870002029
:102C6000887001E04FF0FF3517E001F0F9F90546F3
:102C70001DB935A001F0BAFA02E03AA001F0B6FAA7
:102C80000BE005F0FDFA08E004202C494870002014
:102C9000887002E04FF0FF3500BF00BF45E0712CA7
:102CA00002D103F0D9F80AE0772C02D103F0BCF985
:102CB00005E06D2C01D1002501E04FF0FF3534E037
:102CC0004FF0FF3531E00D2C02D104F025FC2CE053
:102CD000082C10D1194890F84300002823DD17482C
:102CE00090F84300401E154981F8430025A001F0EB
:102CF0007DFA18E018E0114890F84310C01C4454C5
:102D0000C01E90F84300401C0C4981F8430008465F
:102D100090F84300402802D3002081F84300214668
:102D200019A001F063FA00E000BF00BF681C10B9F1
:102D300016A001F05BFA284661E7000014000020AD
:102D4000580000201C0200205573657220436F6EEE
:102D500066696720557064617465204F4B210A0DC8
:102D60000A0D00005573657220436F6E6669672017
:102D7000557064617465204641494C210A0D0A0D65
:102D8000000000000820080025630000496E7661FD
:102D90006C6964207374617465210A0D0000000081
:102DA00010B52DED088B6348407862490978884258
:102DB0000AD003F07BFB5F48807828B15D484078FB
:102DC0005C49087003F028FB5A48007820B10228BB
:102DD00009D0032851D102E0BDEC088B10BD564844
:102DE000FEF72CF94AE0554890ED041AF0EE410A3E
:102DF00090ED071AB0EE410A5148FEF789FFB0EE98
:102E0000408A4E4890ED060AF0EE401A90ED060A10
:102E1000B0EE401AF0EE480A9FED4A0A4648FFF726
:102E200069FD494890ED590A10EE101A0846FDF761
:102E3000FAF941EC190B414890ED070A10EE101A0F
:102E40000846FDF7F0F941EC1B0BB0EE4B0AF0EE33
:102E50006B0A01F0FDF9B0EE40AAF0EE60AA53EC67
:102E6000192B51EC1A0BFDF709FA05D23748006807
:102E700040F080503549086000E000BF00BF2E4898
:102E800090ED020A3048D0ED580AB4EEE00AF1EEB7
:102E900010FA0BDB284890ED020A2D4880ED000A5D
:102EA0002A48006840F0804028490860224890ED98
:102EB000020A2548D0ED570AB4EEE00AF1EE10FA06
:102EC00005D82248006840F00050204908604FF4BF
:102ED0008051204803F058FE60B91C4800681E4924
:102EE0000968884206D0FFF74DFA18490968084377
:102EF000164908601548006817490968884216D0C5
:102F00001248006830B1FFF727FE012009494870D8
:102F1000002088700D48016810A001F067F90B4887
:102F20000068FEF797FD094800680B49086000BF7C
:102F300052E7000014000020E801002024010020D6
:102F400098030020000000001C0200205800002010
:102F500010000020000801405C0000204572726FE4
:102F60007220436F64653A2025580A0D0000000066
:102F700000B587B00021144803F072F9134800909F
:102F800000208DF818001248029001208DF81900D9
:102F9000000201908000039000208DF81A000720A5
:102FA00004904FF4005005906A460021064803F053
:102FB0008FF90021044803F03AF90021024803F098
:102FC0001DF907B000BD0000000002404C24014084
:102FD000EC00002010B500F0B9F85A4801F016FFD7
:102FE000594801F013FF4FF4A02002F017F8012216
:102FF0000221544802F085F800220221524802F0D2
:1030000080F8012211024F4802F07BF800224FF4B1
:1030100080714D4802F075F800214A4801F0EBFE3E
:103020000021494801F0E7FE07220121454801F04F
:10303000BFFE01230D220021424801F0FDFF0123C4
:10304000072219463F4801F0F7FF01230E22022113
:103050003C4801F0F1FF012306220321394801F029
:10306000EBFF012304221146364801F0E5FF01235E
:103070000F220521334801F0DFFF0123052206213D
:10308000304801F0D9FF012202212E4801F090FEC4
:10309000012202212C4801F08BFE01230A2200218B
:1030A000284801F024FF01230B220021264801F0CB
:1030B0001EFF4FF460220121224801F000FF01228F
:1030C0001146204801F0DCFE4FF4805202211D48D9
:1030D00001F0F5FE4FF4E04202211B4801F0EFFE43
:1030E00001220221174801F0CBFE012202211648DD
:1030F00001F0C6FE134801F0B5FE124801F0B7FE1C
:10310000012000F057FC0F4801F03DFE0E4801F091
:10311000AEFE012000F04EFC0B4801F034FE002210
:103120001146122003F070FE0421064801F046FF0C
:103130000421044801F02CFF0121024801F0D2FFD4
:1031400010BD0000002401400028014010B50123FB
:1031500004220021194803F0B9FC022304220021B3
:10316000164803F0B3FC082304220021134803F09F
:10317000ADFC102304220021114803F0A7FC2023FA
:10318000042200210E4803F0A1FC40230422002168
:103190000B4803F09BFC802304220021084803F025
:1031A00095FC102304220021044803F08FFC202307
:1031B00004220021014803F089FC10BD00100140E9
:1031C0000008014010B51C491C4802F095F9002880
:1031D00031D01949194802F086F91949032002F043
:1031E000ECFA174A0121154802F0C0F914480068AA
:1031F000144908601248C07A48711148017B11488F
:1032000081710F48417B0F48C1710D48817B0D488A
:1032100001720B48C17B0B4841720948017C094887
:1032200081720748417C0748C1720548817C054886
:103230000173FEF72DFC10BD840001000064004006
:10324000FC000020BC3F002000B585B00020ADF898
:103250000A00ADF80C000120ADF80E00C003ADF877
:1032600000000020ADF802004FF46040ADF804000B
:103270000620ADF806000120ADF808008DF810001A
:10328000684602F013F805B000BD00000EB500F06E
:1032900037F86946002002F090FA184801F0E0FF84
:1032A00000208DF8040001208DF8050000208DF825
:1032B000060001208DF8070000208DF808008DF829
:1032C00009008DF800008DF8010006208DF802003D
:1032D00001208DF803000620ADF80A006946074872
:1032E00002F06CF8FFF7B0FF1021044802F0F7F885
:1032F00000220221152003F087FD0EBD006400406E
:1033000010B501214FF4EA1003F046FC4FF480732E
:1033100003224821054803F0D9FB4FF40073032230
:103320001821024803F0D2FB10BD0000000C014040
:103330002DE9F04106460F4615464FF6FF7819492C
:10334000022002F03AFA46F4407016490860002064
:1033500048604872087208468572002405E0395DAD
:1033600010480B300155601CC4B2AC42F7DB0D496C
:103370000D4802F06DF90D49087007E0A8F1010051
:103380001FFA80F80121084801F080FF0748017802
:10339000054802F065FA012802D0B8F1000FEDD11E
:1033A000BDE8F08110010020006400400C00002006
:1033B00010B501211D4803F0EFFB4FF40053032229
:1033C00010211B4803F082FB4FF40051184803F012
:1033D00079FB4FF4004303221021164803F076FBDB
:1033E0004FF40041134803F06FFB4FF48053032266
:1033F0001021114803F06AFB4FF480510E4803F08E
:1034000063FB4FF40063032210210A4803F05EFBC4
:103410004FF40061074803F055FB4FF4805303223B
:103420000421044803F052FB10BD000000023000EC
:103430000010014000080140000C014000B587B0B9
:1034400000F01EF80D4804F04FFF002001904FF4EB
:10345000827000904FF400600290012005904002BD
:10346000039018200690002004906946034804F059
:103470006FFF024804F02CFF07B000BD0038004089
:1034800010B54FF4204304221821054803F01EFB19
:103490004FF4804304221146014803F017FB10BD8E
:1034A000000C014000B587B000F01EF80D4804F094
:1034B0001BFF002001904FF4827000904FF40060D9
:1034C0000290012005904002039008200690002001
:1034D00004906946034804F03BFF024804F0F8FEFC
:1034E00007B000BD003C004010B50121084803F0C2
:1034F00053FB4FF4A05304221821064803F0E6FAC8
:103500004FF4006304221146024803F0DFFA10BDB5
:10351000001020000010014010B5044805F082FBA7
:103520000121024805F0E1FB10BD0000002C014024
:1035300000B587B000F08AF803A805F0E2FB424826
:1035400005F002FB4020ADF80E000020ADF80C00A5
:1035500040F6B73005900020ADF81200ADF810002D
:103560008DF8180003A9384805F06CFB684605F093
:10357000E2FA0120ADF800000020ADF80400ADF83B
:1035800008006A460021304805F072F96A460121B8
:103590002D4805F06DF96A4602212B4805F068F9BF
:1035A0006A460321284805F063F940F2DC52002105
:1035B000254805F080FA60220021234805F04EFAE4
:1035C00008220021204805F089FA40F2DC5201214E
:1035D0001D4805F070FA602201211B4805F03EFAF3
:1035E00008220121184805F079FA40F2DC52022144
:1035F000154805F060FA60220221134805F02EFA02
:1036000008220221104805F069FA40F6A43203218D
:103610000D4805F050FA602203210B4805F01EFA10
:1036200000220321084805F059FA074805F01AF965
:1036300000221146192003F0E7FB0121024805F0A2
:103640004DFB07B000BD0000002C014010B54FF449
:10365000807303221821094803F038FA4FF40073ED
:1036600003221821054803F031FA4FF48063032246
:103670001821024803F02AFA10BD0000000801409A
:1036800010B500F02DF8144805F098FB13491248C6
:1036900005F042FB0021104805F042FC00210E48D5
:1036A00005F01AFC00210C4805F028FC04210A480A
:1036B00005F01AFC0821084805F028FC064805F02A
:1036C000C5FB00221146262003F09EFB40F2053187
:1036D000014805F0CFFB10BD0044004000CA0800BF
:1036E00010B5042303221821044803F0EFF908233E
:1036F00003220421014803F0E9F910BD000801404C
:10370000FFF7E8F800BFFEE710B55248006800F088
:1037100093F900B910BD00F097F94E490860FFF722
:103720005DFA012806D002281ED0032847D00428BD
:1037300077D182E04848008818B9012000F08EF85F
:1037400011E045480088642803D1002000F086F885
:1037500009E04148008840F2DC51884203DB4FF623
:10376000FF703D4908806DE03B48008818B9012092
:1037700000F074F822E038480088642803D1002063
:1037800000F06CF81AE034480088C82803D1012002
:1037900000F064F812E030480088B0F5967F03D15D
:1037A000002000F05BF809E02B48008840F2DC5173
:1037B000884203DB4FF6FF702749088042E0264825
:1037C000008818B9012000F049F835E02248008847
:1037D000642803D1002000F041F82DE01E48008845
:1037E000C82803D1012000F039F825E01A480088E4
:1037F000B0F5967F03D1002000F030F81CE01648A9
:103800000088B0F5C87F03D1012000F027F813E04D
:1038100011480088B0F5FA7F04D1002000F01EF8AE
:103820000AE00EE00C48008840F2DC51884203DBDD
:103830004FF6FF700849088004E0012000F00EF800
:1038400000E000BF00BF04480088401C0249088017
:1038500000BF5FE7600000206400002020B14FF44B
:103860000051044A116103E04FF40051014A5161D3
:103870007047000000100140FFF72CF800BFFEE782
:1038800010B5FFF727F810BD10B5002807DA0A07B2
:10389000140E054A00F00F031B1FD45403E00A075F
:1038A000130E024A135410BD18ED00E000E400E0CE
:1038B00010B5FEF74DFD40F2DC500C490860091FC1
:1038C0000860091F0860012108483C3805F0AFF97D
:1038D00000BF012105483C3805F0ACF90028F8D0BC
:1038E000012102483C3805F0A2F910BD3C2C0140F2
:1038F00010B540F2DC500D490860091F0860091F2F
:103900000860012109483C3805F091F900BF012108
:1039100006483C3805F08EF90028F8D0012103480C
:103920003C3805F084F9FEF720FD10BD3C2C014029
:1039300010B5FEF7CFFF10BD70B504460D46012C43
:1039400015D100BF0221174804F0FAFC0028F9D075
:103950002946144804F0C5FC00BF0121114804F0B9
:10396000EFFC0028F9D00F4804F0B7FC70BD022C22
:1039700015D100BF02210C4804F0E2FC0028F9D068
:103980002946094804F0ADFC00BF0121064804F0B7
:10399000D7FC0028F9D0044804F09FFCE6E700209B
:1039A000E4E7000000380040003C004010B5FEF79E
:1039B00091FF10BD10B5044603E04FF47A7000F09B
:1039C00005F8201EA4F10104F7D110BD70B503461F
:1039D00000214FF0E020826900BF4FF0E025A86988
:1039E000824202D9151A29440AE0824208D2104DB7
:1039F0002D684FF47A76B5FBF6F52D1A1544294457
:103A000002460B4D2D680B4EB5FBF6F5B1FBF5F4F8
:103A10009C4200D30AE01B1B054D2D68054EB5FBEB
:103A2000F6F5B1FBF5F605FB1611D6E700BF70BD44
:103A30000000002040420F00014602480068401A82
:103A4000704700000800002001480068704700002F
:103A50000800002002480068401C014908607047C7
:103A60000800002008B52648006840F4700024498A
:103A700008602448006840F001002249086000BF47
:103A80002048006800F002000028F9D000BF1D485F
:103A9000406840F080001B4948600020009002E030
:103AA0000098401C009000985028F9D315484068B1
:103AB00040F09000134948600020009002E0009818
:103AC000401C009000985028F9D300BF0D48406872
:103AD00020F003000B494860084600680A49084086
:103AE000084908604FF41F0088600846006820F409
:103AF0008020086000204860C86204F087FE08BD8E
:103B000088ED00E000100240FFFFF6FE10B5012135
:103B10000C4805F0E7F80C4801780078401C0A4A88
:103B20001070002902DD0020114608700748017856
:103B30000078401C054A1070272902DD002011463C
:103B4000087010BD002C014004000020050000207A
:103B5000B5EEC00AF1EE10FA10D25748D0ED000AC7
:103B60005648C0ED000A5648D0ED000A5348C0ED53
:103B7000010ADFED540AC0ED020A9BE05248D0ED85
:103B8000000AB4EEE00AF1EE10FA27D24A48D0ED6E
:103B9000000A4B4890ED001A41EE000A4B4890EDA8
:103BA000001AF6EE001A21EE211A60EE001A41EE1C
:103BB000210A4248C0ED000A4148D0ED000A4348BE
:103BC00090ED001A41EE000A3C48C0ED010A3F4862
:103BD000D0ED000A3948C0ED020A6BE03A48D0ED5A
:103BE000000A3B4890ED001A70EE810AF4EEC00A1C
:103BF000F1EE10FA1ADD3448D0ED000A30EE601A0A
:103C00003448D0ED000A3448D0ED001A41EE810A64
:103C10002A48C0ED000A3048D0ED000A2748C0ED20
:103C2000010ADFED280AC0ED020A43E02348D0ED87
:103C3000030AF4EEC00AF1EE10FA25DD90ED031A46
:103C400030EE411AF0EE410A244890ED001AF6EEEB
:103C5000001A61EE211A20EEA02A214890ED001AE8
:103C600001EE821A154880ED001A1C4890ED001AEA
:103C700021EE201A114880ED011A184890ED001A23
:103C80000E4880ED021A15E00C48D0ED030AF4EE60
:103C9000C00AF1EE10FA0DD81148D0ED000A07481D
:103CA000C0ED000ADFED070AC0ED010ADFED050AED
:103CB000C0ED020A704700007C000020A403002031
:103CC00084000020000000009400002088000020F4
:103CD00098000020A00000208C0000209000002010
:103CE0008000002030B52DED108B85B0B0EE40AADD
:103CF000B0EE609AB0EE418AB0EE61DAF0EE42AA20
:103D0000B0EE62BA3AEE490AF0EE409A28EE080A9E
:103D1000F0EE000A6BEE200A80EE201A11EE104A37
:103D20002046FCF780FACDE9000118EE100AFCF7F6
:103D30007AFACDE902010199039861F31E0001901E
:103D40009DED000BB0EE40CAF0EE60CA51EC1C0BCA
:103D5000FCF7ACFA0DEE900A79EEED0AB0EE600ACF
:103D600004F0AAFAF0EE408A28EEAA0A954880EDFF
:103D7000000AB1EE680A20EE0B0A934880ED000AB3
:103D800028EE8D0A914880ED000A28EE880AD0EDD1
:103D9000000A68EEA00AB4EEE00AF1EE10FA06DDC1
:103DA000B1EE680A20EE2A0A864880ED000A8748AC
:103DB00090ED000A30EE480A8248D0ED000A80EE0D
:103DC000201A834880ED001A804890ED000AB1EE79
:103DD000400A7D48D0ED000A80EE201A7D4880ED33
:103DE000001A7B4890ED000AF6EE000A20EE200A49
:103DF0007648D0ED000A70EE880A20EE200A754859
:103E0000D0ED000AB6EE001A60EE810A6F4890ED20
:103E1000001AF0EE40BA40EE81BA28EEA90A68EE28
:103E2000AB0AB4EEE00AF1EE10FA7DD228EE080AF1
:103E30006548D0ED000A20EE200A6248D0ED000A65
:103E4000B0EE001A60EE810A5F4890ED001A60EE55
:103E5000810A00EEA90AD0ED000A5A4890ED001A36
:103E600070EEC10A80EE201A11EE105A2846FCF7B7
:103E7000DAF941EC1E0B9FED581BB0EE4E0AF0EE46
:103E80006E0A00F0EFF9B0EE40CAF0EE60CA51ECF5
:103E90001C0BFCF70BFA0FEE100AB0EE4F0A00F005
:103EA000E3FA20EE280A494880ED000A90ED000A66
:103EB00030EE480A4348D0ED000A80EE201A11EE99
:103EC000105A2846FCF7AFF941EC1E0BB0EE4E1A23
:103ED000F0EE6E1A9FED400B00F0C4F9B0EE40CA50
:103EE000F0EE60CA51EC1C0BFCF7E0F938490860B1
:103EF000364890ED000AB1EE400A3348D0ED000A92
:103F000080EE201A11EE105A2846FCF78CF941EC8D
:103F10001E0BB0EE4E1AF0EE6E1A9FED2F0B00F056
:103F2000A1F9B0EE40CA00E00DE0F0EE60CA51EC3D
:103F30001C0BFCF7BBF9274908609FED290A2948AB
:103F400080ED000A09E039EEEB0A2048D0ED000AC6
:103F500080EE201A234880ED001A1D4890ED000ADB
:103F60002048D0ED000A30EE200A1A48D0ED000AB1
:103F700030EE200A1C4880ED030A1C4880ED009AB0
:103F80001B4880ED00AA1B4880ED008AB0EE490A6C
:103F90000F48D0ED000A08EE200A0A48D0ED000ACA
:103FA000B6EE001A60EE810A094890ED001A21EE83
:103FB000011A00EE810A104880ED000A05B0BDEC40
:103FC000108B30BD88000020900000208C00002065
:103FD000940000209C000020000000000000000071
:103FE0000000000098000020A40300207C000020B6
:103FF0008000002084000020A000002010B50849A7
:10400000084804F04DFF50B10549064804F03FFF51
:10401000044804F0C9FEC4B22046FEF7E5FD10BD19
:10402000050305000044004070B500244FF4BE7243
:1040300009490A48FCF79AF800224FF4BC71074876
:1040400001F0D6FE05460548D0F87801A84200D018
:10405000641E204670BD0000002003081C020020E2
:104060002DE9F04100BF00BFEFF31081084672B6A2
:1040700000BF044602F096FC40F2073002F0FAFB63
:104080001A4802F01DFC064640F2073002F0F2FB2F
:10409000F6B900224FF4BC71154801F0A9FE14498D
:1040A000C1F878010F4600250EE057F825100F4A99
:1040B00002EB850002F098FC064640F2073002F061
:1040C000D9FB06B102E06D1C5F2DEED300BF00BF2F
:1040D00002F0E0FB00BF00BF84F3108800BF00BF08
:1040E00016B10120BDE8F0810020FBE700200308A5
:1040F0001C0200201520304908609FED300A084658
:1041000080ED010A9FED2E0A80ED020A9FED2D0A37
:1041100080ED030A0020C1F81801B0EE080A084635
:1041200080ED470AB0EE000A80ED480A0520C1F88C
:104130002401B0EE000A084680ED4A0A9FED220AEB
:1041400080ED4B0A9FED200A80ED4C0A9FED1F0A7F
:1041500080ED4D0A9FED1D0A80ED4E0A9FED1C0A71
:1041600080ED4F0A9FED1B0A80ED500A9FED1A0A61
:1041700080ED510A9FED190A80ED520AB3EE040A50
:1041800080ED530A4FF47A70C1F85801B2EE080A74
:10419000084680ED570A9FED120A80ED580A9FED00
:1041A0000B0A80ED590A0120C1F868010020C1F80E
:1041B0006C01C1F8700170471C0200207BD7453CA0
:1041C0000745F3376F12833A000048420000C842A7
:1041D00000002043CDCC4C3F0AD7A33D0000B442A1
:1041E00000002042FEF776FB00BFFEE70FB4054B50
:1041F00010B503A9044A029800F042FA10BC5DF819
:1042000014FB0000A16A0008E40000200048704789
:10421000E80000200000000030B583B0044600F044
:1042200049F99FED090B05468DED000B0022214653
:104230006846FCF7CAF8284600F052F99DED000BDD
:1042400003B030BD000000000000000000000000CE
:104250002DED020B019820F0004001909DED000B28
:1042600002B0704700B52DED048BB0EE418AF0EE40
:10427000618AB0EE409AF0EE609A83B053EC182B4E
:1042800051EC190BFCF750FB00F07040B0F1005FEF
:104290001AD018EE101A18EE900A8DED008B002936
:1042A00018BF0121084320F00040C0F17F6000F1F9
:1042B000E040C00F01BFB0EE480AF0EE680A03B05C
:1042C000BDEC048B08BF00BDB0EE490A03B0F0EEB0
:1042D000690ABDEC048B00BD10B52DED028BF0EE2C
:1042E000408A18EE900AB0EE608A20F00040C0F1DB
:1042F000FF40C00F07D118EE100A20F00040C0F1B7
:10430000FF40C00F2BD018EE101A18EE900AFCF7E1
:10431000FEF800EE100A10EE100A6FEAD05010F00E
:10432000FF0F04BFBDEC028B10BD18EE900A00F029
:10433000004110EE100A00F00040814204BFBDECC5
:10434000028B10BD18EE101A10EE100ABDEC028B95
:1043500061F31E0000EE900A30EE600A10BD18EE08
:10436000900A4FF07F41B1EB400F1CBF18EE100ACE
:104370005FEA4000C7D1012000F0B2F8BDEC028B2B
:10438000BDE8104000F08EB810B52DED020B2DEDFC
:10439000088B84B09DED0C0B51EC100BFCF768FA08
:1043A00041EC180B9DED0C0B53EC182B51EC100B42
:1043B000FCF777F941EC190B0D989FED290B10F0E4
:1043C000004F53EC102B51EC190B9FED21AB9FEDDF
:1043D00022BB0ED0FBF73AFF0ED953EC1B2B51EC4E
:1043E000190BFBF74BFF1CD214E000BF41EC180B7C
:1043F00017E0FBF72BFF06D253EC1A2B51EC180BEE
:10440000FCF74FF9F2E753EC1B2B51EC190BFBF7C0
:1044100035FF06D853EC1A2B51EC180BFCF7A0F81B
:10442000E4E78DED028B9DED0C0B18EE901A10EE6B
:10443000900A8DED000B61F31E0003909DED020BC1
:1044400004B0BDEC088B02B010BD000000000000FD
:10445000000000000000F03F000000000000E03F0E
:10446000000000000000E0BF10B52DED028BB1EEA2
:10447000C08A18EE100A20F00040C0F1FF40C00FC3
:104480000AD010EE100A20F00040C0F1FF40C00F2B
:1044900004BF012000F024F8B0EE480ABDEC028B06
:1044A00010BD0000DFED020A80EEA00A7047000098
:1044B000000000000148006870470000E80000208C
:1044C00002E008C8121F08C1002AFAD170477047DD
:1044D000002001E001C1121F002AFBD1704700003B
:1044E0000149086070470000E80000202DE9FF5FE7
:1044F00082B00021DDE90430020DDDF840B0034355
:1045000018D044F61050A2F2FF324243151411980D
:1045100001281FD0A5EB0B00401C5FEA000A4FF0FA
:1045200000064E4FDFF83891B046504615D5CAF117
:10453000000413E0119801244AA3012801D16FEA75
:104540000B010298119AC0E90031C0E9024206B09D
:10455000BDE8F09FCBF10000DFE704460021404AB0
:10456000491842EB0450CDE9001012E0E00707D0F3
:1045700032463B4640464946FCF799F88046894614
:1045800032463B4610461946FCF791F806460F4660
:104590006410002CEAD1DDE90401DDE90023BAF161
:1045A000000F06DAFCF783F842464B46FCF77FF82B
:1045B00005E0FCF7EEF842464B46FCF7EAF8044605
:1045C0000E460022284BFBF759FE03D84FF0FF3070
:1045D000014607E00022254B20463146FBF7C0FF8D
:1045E000FCF78AF9102409E0002C0ADB0A220023D8
:1045F000FBF78EFE039B30321A55641E50EA01020F
:10460000F2D1641C039AC4F111031444119A012AD3
:1046100003D0012208430DD10AE0084304D0002052
:104620004FF0110B119072E7A3EB0B056D1E0DE01F
:104630005B4504DD4FF0000205F1010504E003DAFB
:104640004FF00002A5F10105002AECD00298119963
:10465000C0E90231C0E9004579E7000000001440DC
:104660000000F03F300000000000F0430000E03F99
:1046700030380A2801D2012070470020704700001E
:104680002DE9FF4F95B09A46884606460025EEE193
:10469000252877D100242746F94A0121039400E018
:1046A000044316F8013F203B01FA03F01042F7D112
:1046B00030782A2811D06FF02F033078A0F1300223
:1046C000092A16D8039A44F0020402EB820203EB93
:1046D00042021044761C0390EFE758F8042B039233
:1046E000002A03DA504244F40054039044F00204D8
:1046F000761C30782E2816D116F8010F44F00404E9
:104700002A280DD06FF02F023078A0F13003092B4A
:1047100009D807EB870302EB4303C718761CF3E7BE
:1047200058F8047B761C30786C280FD006DC4C28B7
:1047300017D068280DD06A2814D104E0742810D04E
:104740007A280FD10DE044F400140AE044F48014F8
:1047500001E044F440147278824202D104F58014DE
:10476000761C761C307866280BD013DC582877D05E
:1047700009DC002875D04528F6D04628F4D0472813
:104780001AD193E118E0632835D0642879D06528E0
:1047900012D18BE1702873D008DC6728F1D069282A
:1047A0006FD06E280DD06F2806D1ACE073282CD0C6
:1047B000752874D0782853D05246179990476D1CAD
:1047C00054E1C4F30250022809D003280DD0D8F8D0
:1047D000001004280DD00D6008F1040846E1D8F857
:1047E0000010EA17C1E90052F6E7D8F800100D8072
:1047F000F2E70D70F0E718F8041B8DF800100020A8
:104800008DF80100EB46012003E058F804BB4FF09F
:10481000FF3061074FF0000102D40DE009F1010102
:104820008946B9420FDA8145F8DB1BF809100029E7
:10483000F4D108E009F1010189468142FADB1BF855
:1048400009100029F6D103985346A0EB0907214629
:104850003846179A00F080FA284400EB090507E073
:1048600044E008E10DE01BF8010B52461799904710
:10487000B9F10109F7D2534621463846179AF2E0BA
:1048800039E00A21C4F302524FF0000B0091022AD2
:1048900006D058F8040BC117032A09D00AE023E018
:1048A00008F1070020F00702F2E80201904605E057
:1048B00000B2C117042A01D140B2C117002906DA9B
:1048C0000A460021404261EB02012D2202E022054E
:1048D00004D52B228DF80420012203E0E20701D049
:1048E0002022F7E7914657E00A2100E010214FF01F
:1048F000000B00910BE010214FF0000B44F004047A
:104900000827009103E008204FF0000B0090C4F34B
:104910000252022A05D058F8040B0021032A08D0BD
:1049200008E008F1070020F00702F2E802019046D3
:1049300003E080B2042A00D1C0B24FF00009220780
:104940002AD53278702A07D0DDF800C08CF0100C20
:104950005CEA0B0C05D00EE040228DF80420012209
:1049600008E050EA010306D030238DF804308DF8BA
:10497000052002229146009B83F0080353EA0B03B3
:104980000AD150EA010201D1620705D530228DF823
:1049900004204FF001097F1E3278582A04D039A232
:1049A0000C920CAA02920BE03BA2F9E75B46009A3C
:1049B000FBF7AEFC0C9B9B5C029A521E029213709A
:1049C00050EA0102F2D1029804A9081A00F1200B62
:1049D000600702D524F4803400E001275F4502DD42
:1049E000A7EB0B0000E0002000EB0B010090039808
:1049F0004944401A0390E00306D453462146179ACF
:104A0000039800F0A9F90544002706E001A85246E2
:104A1000C05D179990476D1C7F1C4F45F6DBE00386
:104A20000CD553462146179A039800F095F9054492
:104A300004E030205246179990476D1C0099481E9B
:104A400000900029F5DC08E00298029952460078AF
:104A5000491C0291179990476D1CBBF10001ABF105
:104A6000010BF1DC5BE100F065F90544761C307860
:104A700000287FF40DAE19B02846BDE8F08F000085
:104A80000928010030313233343536373839616224
:104A900063646566000000003031323334353637E8
:104AA000383941424344454600000000600700D4C5
:104AB000062708F1070020F00700F0E802238046EF
:104AC00003F0004C5FEA0C0001D097A009E020053C
:104AD00001D596A005E0E00701D095A001E0AFF276
:104AE0004C001390307823F0004365280CD006DC8E
:104AF000452809D046281DD047287FD13BE06628AD
:104B000018D067287AD136E00021112F01DB11205F
:104B100000E0781CCDE9000104A90CA8FFF7E6FC31
:104B2000DDE90D010C9A4FF0000B07F1010910921D
:104B300000914EE04FF000400097CDE9011004A92C
:104B40000CA8FFF7D3FCDDE90D020C9B0F994FF089
:104B5000000B91461093009211B9791C00EB0109EA
:104B6000B7EB090003D4C0F1FF3B07F10109A9EB42
:104B70000700019042E0012F00DA01270021112FE8
:104B800001DD112000E03846CDE9000104A90CA8A0
:104B9000FFF7ACFCDDE90D010C9A00914FF0000B22
:104BA000B946109221070FD4009A4A4503DA91467C
:104BB00001E0A9F10109B9F1010F05DD109AA9F190
:104BC0000101515C3029F4D0B84202DA10F1040F2F
:104BD00003DA0121CDE9011010E0002803DC834451
:104BE000A9EB000102E0411C494500DD8946A0EB2C
:104BF0000B00401C01904FF000400290200705D4AC
:104C00000198484502DB4FF0FF30019000208DF8FD
:104C10004B0002980DF14B07B0F1004F25D0022058
:104C20000C902B200D90029800280CDA4042029044
:104C30002D200D9007E00A210298FBF753FB30313D
:104C4000029007F8011D0C99481E0C900029F2DC17
:104C500002980028EFD1791E0D980870307800F086
:104C6000200040F0450007F8020D11A8C01BC01D30
:104C700002901398007800B1012000EB090101981F
:104C800001EBE071029801440398401A401E039022
:104C9000E00306D453462146179A039800F05CF8C7
:104CA00005441398007818B15246179990476D1C27
:104CB000E00323D553462146179A039800F04CF899
:104CC00005441BE0BBF1000F07DB0098584504DDED
:104CD0001098179910F80B0001E0179930205246F0
:104CE000904701980BF1010B401E05F10105019061
:104CF00004D12E205246179990476D1CB9F100013E
:104D0000A9F10109DEDC05E017F8010B52461799FD
:104D100090476D1C0299481E02900029F4DC53460E
:104D20002146179A03989EE62D0000002B000000F4
:104D3000200000002DE9F041044600251E461746DC
:104D4000880404D405E039462020B0476D1C641E59
:104D5000F9D52846BDE8F0812DE9F041044600254B
:104D60001E469046C80301D5302700E0202788045E
:104D700004D505E041463846B0476D1C641EF9D5A0
:104D80002846BDE8F081816841F00801816000BFDC
:104D9000816801F008010029FAD1816841F004011D
:104DA000816000BF816801F004010029FAD17047D9
:104DB00030B5012902D002291AD10CE0C36A23F4CC
:104DC0007003C362C36A541E4FF4700505EA0454AD
:104DD0002343C3620DE0836B23F440138363836B2F
:104DE000541E4FF4401505EA04542343836300E046
:104DF00000BF00BF30BD21B1826842F40062826012
:104E000003E0826822F400628260704710B50446B5
:104E10001348204430B1B0F5806F0CD0B0F5C05FBE
:104E20001BD111E040F2093003F01AFA40F20930C8
:104E300003F006FA12E040F20A3003F011FA40F2F1
:104E40000A3003F0FDF909E040F20F3003F008FAF0
:104E500040F20F3003F0F4F900E000BF00BF10BDD6
:104E600000DCFEBF816841F4807181607047816819
:104E700001F0010119B9816841F0010181607047B9
:104E800072B101F001031BB1836843F480138360A6
:104E900001F0020393B1836843F4004383600DE0A3
:104EA00001F001031BB1836823F48013836001F0D8
:104EB00002031BB1836823F4004383607047012918
:104EC00002D0022910D107E0836823F460238360B5
:104ED00083681343836008E0836823F4E0438360BE
:104EE00083681343836000E000BF00BF7047F0B5E4
:104EF0000C46876BC7F30156856BE71CBF1B07EB9E
:104F0000870C1F2707FA0CF7BD43E71CBF1B07EBF5
:104F1000870702FA07F73D4385630A2A0DD2016924
:104F200002EB420C072707FA0CF7B94302EB4207E2
:104F300003FA07F73943016112E0122A10D2C1685F
:104F4000A2F10A0707EB470C072707FA0CF7B9434A
:104F5000A2F10A0707EB470703FA07F73943C160D5
:104F6000F0BD02460B4633B1012B06D0022B06D012
:104F7000032B08D105E0D16B07E0116C05E0516C03
:104F800003E0916C01E0002100BF00BF88B27047D0
:104F900001F001021AB1426842F04002426001F0A1
:104FA00002021AB1426842F02002426001F004029B
:104FB0001AB1426842F0800242607047CA43026000
:104FC000704710B502460B460020012B04D0022B7F
:104FD0000CD0042B1ED113E0146804F001015468B6
:104FE00004F040040CB101B1012014E0146804F095
:104FF0000201546804F020040CB101B101200AE060
:10500000146804F00401546804F080040CB101B188
:10501000012000E000BF00BF10BD00000549096885
:1050200021F47021034A116011460968014311609F
:105030007047000004240140F0B51D4606290CD23B
:10504000436B01EB81071F26BE40B34301EB810692
:1050500002FA06F63343436322E00C290ED2036BB7
:105060008E1F06EB86071F26BE40B3438E1F06EB3E
:10507000860602FA06F63343036311E010290FD2C5
:10508000C36AA1F10C0606EB86071F26BE40B34398
:10509000A1F10C0606EB860602FA06F63343C3625C
:1050A0000A2A0CD2046902EB42070726BE40B44329
:1050B00002EB420605FA06F63443046111E0122AB7
:1050C0000FD2C468A2F10A0606EB46070726BE40C7
:1050D000B443A2F10A0606EB460605FA06F6344387
:1050E000C460F0BD01F001021AB1826842F480028E
:1050F000826001F002021AB1826842F400128260FA
:105100007047AAB101F480731BB1436843F4807304
:10511000436001F480631BB1436843F480634360E0
:1051200001F00203CBB1836843F00203836014E013
:1051300001F480731BB1436823F48073436001F46E
:1051400080631BB1436823F48063436001F0020372
:105150001BB1836823F002038360704700B52DED17
:10516000088B85B0F0EE409AB0EE60AAF0EE41AA4E
:10517000B0EE61BA9FED360A29EE800AF7EE000A1A
:1051800080EE801AF0EE41BA2BEE8A0AF0EE408AE9
:105190002BEEAA0AB0EE408A68EEA80A48EE080A8A
:1051A000B0EE600AFFF760F9DFED2A0A80EE801AA0
:1051B000B0EE419AB7EE000AB4EEC09AF1EE10FAE2
:1051C00007D228EE890AF0EE408A28EE090AB0EEEE
:1051D000408A03A904A8B0EE4B1AF0EE480AB0EEDC
:1051E000680A01F03DFD6A4601A902A8DDED030A47
:1051F0009DED040A03F0C6F89DED020ADFED160AE4
:1052000020EE200ABCEEC00A10EE100A80B213494C
:1052100008609DED010ADFED100A20EE200ABCEEC9
:10522000C00A10EE100A80B2091F08609DED000A46
:10523000DFED090A20EE200ABCEEC00A10EE100ACB
:1052400080B2091F086005B0BDEC088B00BD0000EE
:10525000ABAA2A3FAC5C313F00803B453C2C01406F
:1052600010B504460548844207D140F2194002F0C7
:10527000F7FF40F2194002F0E3FF10BD0064004068
:10528000014600208A69C2F30210704721B9C26842
:1052900042F02002C26008E0012904D1026942F014
:1052A0002002026101E000BFFEE7704710B5002157
:1052B000837A012202FA03F13E4A126842F00102A7
:1052C0003C4B1A603B4A1C3212688A43394B1C33F0
:1052D0001A60C289DAB9374A0C3212688A43354BF0
:1052E0000C331A60C288344B03EA024243881A43E3
:1052F0004389304C403444F8332082882E4B03EAF3
:10530000024203881A43438904EBC3035A60C289EB
:10531000012A1BD1274A0C3212680A43254B0C3351
:105320001A600288244B03EA024243881A434389E5
:10533000204C403444F8332082881F4B03EA024259
:10534000C3881A43438904EBC3035A6082893AB97C
:10535000184A121D12688A43164B1B1D1A6006E07C
:10536000144A121D12680A43124B1B1D1A6002894F
:105370003AB9104A143212688A430E4B14331A6039
:1053800006E00C4A143212680A430A4B14331A60BE
:10539000027C012A06D1074A1C3212680A43054BD7
:1053A0001C331A60034A126822F00102014B1A6092
:1053B00010BD0000006600400000FFFF70B502460F
:1053C0004FF6FF730020146824F002041460146880
:1053D00044F00104146000E05B1E546804F0010412
:1053E0000CB9002BF8D1546804F001040CB900206A
:1053F00074E00C784FF0404505EA84744D784FF026
:10540000407606EA05652C438D784FF4702606EA4F
:1054100005452C43CD784FF4E00606EA05552C43AC
:105420004D896D1EC5F309052C43D4610C79012CFF
:1054300004D1146844F08004146003E0146824F07C
:10544000800414604C79012C04D1146844F04004A9
:10545000146003E0146824F0400414608C79012C7B
:1054600004D1146844F02004146003E0146824F0AC
:1054700020041460CC79012C04D1146824F01004A9
:10548000146003E0146844F0100414600C7A012CDA
:1054900004D1146824F00804146003E0146844F094
:1054A000080414604C7A012C04D1146844F00404FC
:1054B000146003E0146824F004041460146824F0F9
:1054C000010414604FF6FF7300E05B1E546804F0A3
:1054D00001040CB1002BF8D103B1012070BD426969
:1054E0000A4342617047C1F3841301229A4000EBE2
:1054F00011331A6070470000F0B505460C460026CF
:1055000000274CF28100844205D10021284600F09A
:1055100047F9064619E01348844205D1012128467F
:1055200000F03EF9064610E00F48844204D12846B8
:10553000FFF7A6FE064608E005EB14300068C4F34A
:1055400084120121914000EA0106686904F01F02FB
:105550000121914000EA010716B10FB10120F0BD11
:105560000020FCE784000100CB80010010B500F5AD
:10557000D87303EB01131B6803F004031372137A4F
:105580003BB900F5D87303EB01131B685B0D136087
:1055900006E000F5D87303EB01131B68DB085360CA
:1055A00000F5D87303EB01131B6803F00203537279
:1055B00000F5DA7303EB01131B681B0AD37400F5C3
:1055C000DA7303EB01131B6803F00F03937200F50A
:1055D000DC7303EB01131B68D37200F5DC7303EB80
:1055E00001131B681C0A147300F5DC7303EB011331
:1055F0001B681C0C547300F5DC7303EB01131B6870
:105600001C0E947300F5DE7303EB01131B68D37358
:1056100000F5DE7303EB01131B681C0A147400F51C
:10562000DE7303EB01131B681C0C547400F5DE736E
:1056300003EB01131B681C0E947421B9C36843F07B
:105640002003C36003E0036943F02003036110BD3E
:1056500030B502460B460021906800F08060B0F142
:10566000806F00D110E0906800F00060B0F1006F32
:1056700001D1012108E0906800F08050B0F1805F16
:1056800001D1022100E00321032901D1032030BD13
:1056900002F5C07000EB0110006800F0010402F593
:1056A000C07000EB01100460187A88B918883B4C70
:1056B00004EA40505C7A204302F5C07404EB011404
:1056C0002468204302F5C07404EB0114206013E049
:1056D0006FF00704586804EAC0001C7A20435C7A23
:1056E000204302F5C07404EB01142468204302F542
:1056F000C07404EB0114206002F5C27000EB0110CD
:10570000006820F00F0402F5C27000EB0110046085
:1057100002F5C27000EB011000689C7A204302F58C
:10572000C27404EB01142060987B4FF07F4404EABC
:1057300000605C7B4FF47F0505EA044420431C7B3A
:105740002D1205EA04242043DC7A204302F5C474B8
:1057500004EB01142060987C2C0404EA00605C7C5B
:105760002D0205EA044420431C7C2D1205EA042482
:105770002043DC7B204302F5C67404EB0114206057
:1057800002F5C07000EB0110006840F0010402F562
:10579000C07000EB01100460084678E70000E0FFED
:1057A0000246002019B9D36803F0030004E0012980
:1057B00002D1136903F00300704710B5024609B91E
:1057C00000BFFEE732B1012A16D0022A20D0032AF8
:1057D00041D12EE000234B71CB718B7140F2FF332E
:1057E0004B8100230B724B7002238B700023CB7014
:1057F0000B714B720B7030E00123CB8100230B74D3
:105800000B810B804B808B80CB808B814B8124E084
:10581000002005E0002401F10B031C54431CD8B206
:105820000828F7D300238B724B600B724B720B600E
:1058300013E0002005E0002401F10B031C54431C7D
:10584000D8B20828F7D300238B724B600B72CB744D
:105850004B720B6001E000BFFEE700BF10BD00000F
:1058600030B502460020002321B1012907D00229CA
:105870000FD109E09468144D04EA05030BE0946825
:10588000124D04EA050306E09468114D04EA05038D
:1058900001E0002300BF00BF53B1A3F18064E41E08
:1058A00044B10C4D2C443CB10B4D2C4444B905E0A3
:1058B000022007E0012005E0012003E0012001E0D3
:1058C000002000BF00BF30BD03000004000300083B
:1058D0000000031003FDFFFB0003FDF770B5064653
:1058E0000C461546204600F0A7FA1E2871D2DFE8C4
:1058F00000F0700F20354A5F718295AABFD2F9F788
:10590000F6F5F4F3F2F1F0EFEEEDECEBEAE9E8E7AF
:1059100025B1201D00F090FAFA490860F94908689D
:10592000211D01F08FF9082221463046FDF700FDC8
:105930004EE22DB1201D00F06FFAF24880ED010A11
:10594000F048D0ED010AB0EE600A201D00F02EFFF5
:10595000082221463046FDF7EBFC39E22DB1201D2F
:1059600000F05AFAE74880ED020AE648D0ED020A54
:10597000B0EE600A201D00F019FF082221463046D3
:10598000FDF7D6FC24E22DB1201D00F045FADD48DC
:1059900080ED030ADB48D0ED030AB0EE600A201D5B
:1059A00000F004FF082221463046FDF7C1FC0FE25B
:1059B00025B1201D00F040FAD2490861D14908699B
:1059C000211D01F03FF9082221463046FDF7B0FCC9
:1059D000FEE1FCE125B1201D00F02EFAC949486125
:1059E000C8494869211D01F02DF908222146304699
:1059F000FDF79EFCECE12DB1201D00F01DFAC14920
:105A0000C1F81801BF49D1F81801211D01F01AF998
:105A1000082221463046FDF78BFCD9E12DB1201D2F
:105A200000F0FAF9B74880ED470AB648D0ED470ACA
:105A3000B0EE600A201D00F0B9FE08222146304673
:105A4000FDF776FCC4E12DB1201D00F0E5F9AD486D
:105A500080ED480AAB48D0ED480AB0EE600A201D40
:105A600000F0A4FE082221463046FDF761FCAFE1BC
:105A70002DB1201D00F0E0F9A249C1F82401A1498F
:105A8000D1F82401211D01F0DDF80822214630461D
:105A9000FDF74EFC9CE12DB1201D00F0BDF99948A9
:105AA00080ED4A0A9748D0ED4A0AB0EE600A201D00
:105AB00000F07CFE082221463046FDF739FC87E1E4
:105AC00072E15EE14AE134E11EE105E1F1E0DBE093
:105AD000C5E0AFE099E083E06DE057E041E02BE006
